S01600004368726973746D617320537461722E73726563A6
S11300000AC019C018C017C016C015C014C013C048
S113001012C011C010C011271FBFCFE5D0E0DEBF52
S1130020CDBF20E0A0E4B0E001C01D93AE35B2071F
S1130030E1F73ED089C0E4CF462F572F440F551F18
S1130040640F751F0A9A52B15B7FA2B1A460BFB757
S1130050F8946117710709F422C0E82FF92F860F6D
S1130060971F419168E0A2B947FF52B9440F0000BD
S113007000C052B9000000C000C000C000C000C0F1
S113008000C000C000C000C000C000C000C000C06C
S113009000C000C06A9539F7E817F90711F7BFBF28
S11300A047E552E041505040E9F700C00000089590
S11300B048ED4CBF16BF0A9A1A98129846E941A90E
S11300C040A942A94FEF44A913A915A947A954E689
S11300D056A918A95AA949A91BA91DA94CA91EA921
S11300E010AB5FA941AB13AB12AB44AB16AB15AB72
S11300F017ABC0E0CF5FC7704C2F50E04C0F511FBF
S11301004C0F511FE42FF52FE05CFF4FEF5FFF4FC3
S11301106081E150F04069AB508158ABEE5FFF4F16
S113012040814AAB6CAB5BAB4DAB62E070E088E501
S113013090E082DF4FEF54E36CE041505040604068
S10F0140E1F700C00000D6CFF894FFCF18
S9030000FC
