S01600004368726973746D617320537461722E73726563A6
S11300000AC024C053C022C021C020C01FC01EC0CB
S11300101DC01CC01BC011271FBFCFE5D0E0DEBF31
S1130020CDBF20E0A0E4B0E0EAE9F1E402C0319100
S11300303D93A234B207D9F720E0A2E4B0E001C0B6
S11300401D93AD35B207E1F74AD0A5C0D9CF0A9ABE
S113005052B15B7FA2B1A460BFB7F8946117710776
S113006009F422C0E82FF92F860F971F419168E009
S1130070A2B947FF52B9440F000000C052B90000B2
S113008000C000C000C000C000C000C000C000C06C
S113009000C000C000C000C000C000C000C06A951D
S11300A039F7E817F90711F7BFBF08951F930F93A6
S11300B00FB70F9310E06F937F938F939F930199E2
S11300C005C080A18F5F69E05AD090A99F918F915C
S11300D07F916F910F910FBF0F911F91189548ED6C
S11300E04CBF16BF0A9A09981A98199A1298909AAE
S11300F0819A789413A912A914A94FEF46A945A986
S113010047A949A918A91AA94CA954E65BA91DA98C
S11301105FA94EA910AB12AB41AB13AB15AB54ABFB
S113012046AB18AB17AB49AB5BAB1AAB4CAB59E066
S113013040A15417C9F0842F90E0840F911F840FBD
S1130140911F8E5B9F4F63E070E081DF40A1842F9D
S113015090E0840F911F840F911F8E5B9F4F63E08B
S113016070E075DF50A101C0542F4FE76AE176E0DB
S1130170415060407040E1F700C00000D9CF991BA6
S113018079E004C0991F961708F0961B881F7A958A
S10D0190C9F780950895F894FFCF95
S105019A01005E
S9030000FC
