:1000000013C02DC05CC02BC02AC029C028C027C087
:1000100026C025C024C06DC171C175C179C17DC123
:1000200081C185C189C18DC111271FBFCFE5D0E036
:10003000DEBFCDBF20E0A0E4B0E0E8E8F3E402C01A
:1000400031913D93A234B207D9F720E0A2E4B0E0A9
:1000500001C01D93A534B207E1F738D193C1D0CFC9
:100060000A9A52B15B7FA2B1A460BFB7F89461173E
:10007000710709F422C0E82FF92F860F971F4191CD
:1000800068E0A2B947FF52B9440F000000C052B95E
:10009000000000C000C000C000C000C000C000C020
:1000A00000C000C000C000C000C000C000C000C050
:1000B0006A9539F7E817F90711F7BFBF08951F933D
:1000C0000F930FB70F9310E06F937F938F939F93CE
:1000D000019905C080A18F5F6AE048D190A99F91E6
:1000E0008F917F916F910F910FBF0F911F91189575
:1000F0002F933F93CF93DF9300D0CDB7DEB7282F58
:10010000CF5FDF4F6883C150D040CE5FDF4F488361
:10011000C250D04043A1841710F432E001C030E057
:10012000421708F4316042A1CF5FDF4F5881C150C0
:10013000D040541708F43860CF5FDF4F6881C1505A
:10014000D040461708F4346044A1CE5FDF4F588199
:10015000C250D040541708F43062CE5FDF4F688140
:10016000C250D040461708F046C0306144C030FF4E
:1001700002C04F5F43A931FF03C043A1415043A9CF
:1001800032FF03C042A14F5F42A933FF03C042A127
:10019000415042A934FF03C044A14F5F44A935FF39
:1001A00003C044A1415044A943A1241301C03C7F92
:1001B00042A1CF5FDF4F5881C150D040541301C0DE
:1001C000337F44A1CE5FDF4F6881C250D0406413BB
:1001D00001C03F7C63E070E082E490E041DF63E0D7
:1001E00070E082E490E03CDF4FE255E74150504040
:1001F000E9F700C0000043A12413B9CF52A1CF5F9B
:10020000DF4F6881C150D0406513B1CF54A1CE5F9C
:10021000DF4F6881C250D0406513A9CF0F910F9175
:10022000DF91CF913F912F910895CF9340E060E00F
:100230008FEF5EDF40A1483039F046C0C0FF05C0F7
:1002400043A14F5F43A901C0C0E0C1FF03C043A168
:10025000415043A9C2FF03C042A14F5F42A9C3FF5F
:1002600003C042A1415042A9C4FF03C044A14F5F53
:1002700044A9C5FF03C044A1415044A943A14F3F35
:1002800011F4CE7DC66042A14F3F11F4C97FC86111
:1002900044A14F3F11F4C77EC16263E070E082E485
:1002A00090E0DEDE63E070E082E490E0D9DE4FEFC4
:1002B00059E668E1415050406040E1F700C000005D
:1002C00040A1483009F4BACFCF91089548ED4CBF12
:1002D00016BF0998199A909A819A789450A138C0BB
:1002E00050E04930510778F5E42FF52FE55FFF4FD7
:1002F000099440E060E08FEFFBDE29C040E064E657
:100300008FEFF6DE24C040E06FEF84E6F1DE1FC021
:1003100040E06FEF80E0ECDE1AC04FEF64E680E073
:10032000E7DE15C04FEF60E080E0E2DE10C04FEF87
:1003300060E084E6DDDE0BC04FEF6FEF8FEFD8DEBD
:1003400006C073DF04C040E060E080E0D1DE50A171
:100350004FE76AE176E0415060407040E1F700C04D
:10036000000040A15413BCCF542FF2CF991B79E069
:1003700004C0991F961708F0961B881F7A95C9F735
:0803800080950895F894FFCF69
:020388000A0069
:00000001FF
