:1000000013C02DC065C02BC02AC029C028C027C07E
:1000100026C025C024C06CC16DC16FC171C172C141
:1000200074C175C177C17AC111271FBFCFE5D0E078
:10003000DEBFCDBF20E0A0E4B0E0E6E4F3E402C020
:1000400031913D93A234B207D9F720E0A2E4B0E0A9
:1000500001C01D93A534B207E1F738D172C1D0CFEA
:10006000CF93DF93CDB7DEB751B1542B51B952B115
:10007000E42FE0955E23E2B14E2BAFB7F894E82F62
:10008000F92F6E0F7F1FE617F707E1F0819198E0D7
:1000900042B987FF52B9880F000000C052B9000072
:1000A00000C000C000C000C000C000C000C000C050
:1000B00000C000C000C000C000C000C000C09A95D1
:1000C00039F7E1CFAFBFDF91CF91089544E0C8CFBA
:1000D0001F930F930FB70F9310E06F937F938F933E
:1000E0009F93019905C080A18F5F6AE01ED190A9FE
:1000F0009F918F917F916F910F910FBF0F911F91E2
:1001000018952F933F93CF93DF9300D0CDB7DEB7F1
:10011000CF5FDF4F8883C150D040262FCE5FDF4FA7
:100120004883C250D04043A1841710F432E001C08C
:1001300030E0CF5FDF4F5881C150D040451708F401
:10014000316042A1241708F43860421708F4346083
:1001500044A1CE5FDF4F7881C250D040741708F4BD
:100160003062CE5FDF4F5881C250D040451708F053
:1001700047C0306145C0261709F44DC030FF02C0AA
:100180005F5F53A931FF03C053A1515053A932FF00
:1001900002C06F5F62A933FF03C052A1515052A940
:1001A00034FF02C04F5F44A935FF03C044A1415052
:1001B00044A943A1CF5FDF4F7881C150D040741371
:1001C00001C03C7F42A1241301C0337F44A1CE5F14
:1001D000DF4F5881C250D040541301C03F7C63E0D0
:1001E00070E082E490E072DF63E070E082E490E02F
:1001F0006DDF4FEA56E341505040E9F700C0000080
:1002000053A162A144A1CF5FDF4F7881C150D0409C
:100210007513B4CFB0CFCE5FDF4F7881C250D040DE
:100220007413ACCF0F910F91DF91CF913F912F912C
:100230000895CF9340E060E08FEA63DFC0E040A123
:10024000483009F041C0C0FF03C043A14F5F43A93C
:10025000C1FF03C043A1415043A9C2FF03C042A153
:100260004F5F42A9C3FF03C042A1415042A9C4FF4E
:1002700003C044A14F5F44A9C5FF03C044A141503E
:1002800044A943A14F3A11F4CE7DC66042A14F3A32
:1002900011F4C97FC86144A14F3A11F4C77EC1620D
:1002A00063E070E082E490E011DF63E070E082E4FC
:1002B00090E00CDF4FEF59E668E14150504060405C
:1002C000E1F700C00000BBCFCF91089548ED4CBFCF
:1002D00016BF0998199A909A819A789440A150E093
:1002E00049305107E8F4E42FF52FE55FFF4F0994FB
:1002F00040E00EC040E06BE20FC040E067E50CC09C
:1003000040E001C04FEA6FEA0DC04FEA0AC04FEA71
:1003100060E002C04FEA6FEA8FEA05C08ADFDECFF5
:1003200040E060E080E0EDDED9CF991B79E004C0C9
:10033000991F961708F0961B881F7A95C9F7809524
:060340000895F894FFCFC0
:020346000900AC
:00000001FF
