S01600004368726973746D617320537461722E73726563A6
S11300000AC024C05CC022C021C020C01FC01EC0C2
S11300101DC01CC01BC011271FBFCFE5D0E0DEBF31
S1130020CDBF20E0A0E4B0E0E6ECF1E402C0319101
S11300303D93A234B207D9F720E0A2E4B0E001C0B6
S11300401D93AD35B207E1F753D0BBC0D9CFCF93E1
S1130050DF93CDB7DEB751B1542B51B952B1E42F70
S1130060E0955E23E2B14E2BAFB7F894E82FF92F59
S11300706E0F7F1FE617F707E1F0819198E042B910
S113008087FF52B9880F000000C052B9000000C0B9
S113009000C000C000C000C000C000C000C000C05C
S11300A000C000C000C000C000C000C09A9539F76D
S11300B0E1CFAFBFDF91CF91089544E0C8CF1F9344
S11300C00F930FB70F9310E06F937F938F939F93CA
S11300D0019905C080A18F5F69E067D090A99F91C5
S11300E08F917F916F910F910FBF0F911F91189571
S11300F048ED4CBF16BF0A9A09981A98199A129893
S1130100909A819A789413A912A914A94FEF46A939
S113011045A947A949A918A91AA94CA954E65BA954
S11301201DA95FA94EA910AB12AB41AB13AB15AB24
S113013054AB46AB18AB17AB49AB5BAB1AAB4CAB90
S113014049E080A14817A1F090E063E070E01BD083
S11301508E5B9F4F63E070E0B0DF80A190E063E0CE
S113016070E011D08E5B9F4F63E070E0A6DF80A14A
S11301704FE75AE166E0415050406040E1F700C06B
S11301800000482FDECF0027552704C0080F591F51
S1130190880F991F8050904029F076956795B0F3A9
S11301A07107B1F7802F952F0895991B79E004C04A
S11301B0991F961708F0961B881F7A95C9F78095A2
S10901C00895F894FFCF3E
S10501C6010032
S9030000FC
